:020000040000FA
:100000000C9462000C948A000C948A000C948A0070
:100010000C948A000C948A000C948A000C948A0038
:100020000C948A000C948A000C948A000C948A0028
:100030000C948A000C948A000C948A000C948A0018
:100040000C9405080C948A000C9475080C944F08C5
:100050000C948A000C948A000C948A000C948A00F8
:100060000C948A000C948A000000000023002600F3
:10007000290000000008000201000003040700003E
:1000800000000000000000000000250028002B00F8
:1000900000000000240027002A00040404040404D3
:1000A0000404020202020202030303030303010227
:1000B00004081020408001020408102001020408F6
:1000C0001020A70811241FBECFEFD8E0DEBFCDBFA0
:1000D00011E0A0E0B1E0E8E2FAE102C005900D9283
:1000E000A434B107D9F726E0A4E4B1E001C01D9221
:1000F000A232B207E1F710E0C2E6D0E004C02197D7
:10010000FE010E94070DC136D107C9F70E94E3081E
:100110000C94120D0C940000CF93DF9390E0FC013F
:10012000E255FF4F249186569F4FFC01849188230E
:10013000C1F090E0880F991FFC01E057FF4FC59177
:10014000D491FC01EA57FF4FA591B4919FB7F89461
:100150003881822F809583238883EC91E22BEC9366
:100160009FBFDF91CF91089590E0FC01EE58FF4FC3
:100170002491FC01E255FF4F3491FC01E656FF4FFC
:10018000E491EE23C1F1222339F02330E9F090F419
:10019000213001F1223011F1F0E0EE0FFF1FE8599C
:1001A000FF4FA591B491EC91E32381E090E029F514
:1001B00080E008952730A9F02830C9F0243061F795
:1001C000809180008F7D03C0809180008F77809325
:1001D0008000E2CF84B58F7784BDDECF84B58F7D7C
:1001E000FBCF8091B0008F778093B000D5CF809106
:1001F000B0008F7DF9CF80E090E008953FB7F8948C
:100200008091640590916505A0916605B0916705A0
:1002100026B5A89B05C02F3F19F00196A11DB11D61
:100220003FBFBA2FA92F982F8827BC01CD01620F9D
:10023000711D811D911D42E0660F771F881F991F58
:100240004A95D1F708954F925F926F927F929F9255
:10025000AF92BF92CF92DF92EF92FF920F931F93D4
:10026000CF93DF9300D01F92CDB7DEB7D0901506A5
:100270008091180690911906A0911A06B0911B065C
:10028000892B8A2B8B2BD9F00E94FE0000917405DC
:10029000109175052091760530917705601B710BE3
:1002A000820B930B009118061091190620911A06E3
:1002B00030911B066017710782079307C8F20E94EE
:1002C000FE00609374057093750580937605909396
:1002D0007705E0912006F0912106309759F0409182
:1002E0001C0650911D0660911E0670911F068D2DF3
:1002F0000995D82EE0907205F09073054D2C512C85
:10030000712C612CE114F10409F459C0D7011C9639
:10031000CC901C9780911606909117068436910513
:1003200010F41C961C92D701ED91FC91A280B38031
:1003300019821A821B82DD2079F1F701369610E0CE
:1003400000E02191222319F19280992001F130E0FF
:1003500050E040E02F5F3F4F4F4F5F4FC301B2016E
:100360000E94C80C9B01AC01892D90E0B0E0A0E098
:10037000BC01CD016F5F7F4F8F4F9F4F0E94C80C14
:10038000A1E0B0E0AC0FBD1FA00FB11F8C930F5FB9
:100390001F4F03301105A9F609811A812B81F7013E
:1003A0004585568562817381C701F5010995D7019D
:1003B0001C96CC921C971496ED90FC90A3CF809144
:1003C0007005909171059C012F5F3F4F309371052F
:1003D0002093700549970CF44AC08FB7F894209188
:1003E00068053091690540916A0550916B058FBF92
:1003F00080916C0590916D05A0916E05B0916F058F
:10040000281B390B4A0B5B0B21F421E030E040E064
:1004100050E0E0917005F091710588EE93E0E89F5F
:10042000B001E99F700DF89F700D1124072E000C8C
:10043000880B990B0E94970C309317062093160691
:1004400010927105109270052FB7F894809168058D
:1004500090916905A0916A05B0916B052FBF8093BB
:100460006C0590936D05A0936E05B0936F050F908A
:100470000F900F90DF91CF911F910F91FF90EF9010
:10048000DF90CF90BF90AF909F907F906F905F90E4
:100490004F9008958F929F92AF92BF92CF92DF922A
:1004A000EF92FF924B015C010E94FE006B017C0108
:1004B0000E94FE006C197D098E099F09683E7340F9
:1004C00081059105A8F321E0821A9108A108B108DD
:1004D00088EEC80E83E0D81EE11CF11C8114910443
:1004E000A104B10429F7FF90EF90DF90CF90BF9067
:1004F000AF909F908F90089580E991E00895AF921A
:10050000BF92CF92DF92EF92FF920F931F93CF9300
:10051000DF936C017B018B01040F151FEB015E0162
:10052000AE18BF08C017D10759F06991D601ED91F7
:10053000FC910190F081E02DC6010995892B79F796
:10054000C501DF91CF911F910F91FF90EF90DF9048
:10055000CF90BF90AF900895FC01538D448D252F0F
:1005600030E0842F90E0821B930B541710F0CF964D
:10057000089501970895FC01918D828D981761F07F
:10058000A28DAE0FBF2FB11D5D968C91928D9F5F96
:100590009F73928F90E008958FEF9FEF0895FC0175
:1005A000918D828D981731F0828DE80FF11D858D28
:1005B00090E008958FEF9FEF0895FC01918D228DBB
:1005C000892F90E0805C9F4F821B91098F73992740
:1005D000089588E795E00E94DD0221E0892B09F467
:1005E00020E0822F089580E090E0892B29F00E947E
:1005F000E90281110C9400000895FC01A48DA80F5C
:10060000B92FB11DA35ABF4F2C91848D90E0019654
:100610008F739927848FA689B7892C93A089B18974
:100620008C91837080648C93938D848D981306C015
:100630000288F389E02D80818F7D80830895EF9279
:10064000FF920F931F93CF93DF93EC0181E0888F8C
:100650009B8D8C8D98131AC0E889F989808185FF5C
:1006600015C09FB7F894EE89FF896083E889F989FE
:1006700080818370806480839FBF81E090E0DF9100
:10068000CF911F910F91FF90EF900895F62E0B8D53
:1006900010E00F5F1F4F0F731127E02E8C8D8E110E
:1006A0000CC00FB607FCFACFE889F989808185FF75
:1006B000F5CFCE010E94FD02F1CFEB8DEC0FFD2FA7
:1006C000F11DE35AFF4FF0829FB7F8940B8FEA8930
:1006D000FB8980818062CFCFCF93DF93EC01888D3F
:1006E0008823B9F0AA89BB89E889F9898C9185FDAD
:1006F00003C0808186FD0DC00FB607FCF7CF8C913B
:1007000085FFF2CF808185FFEDCFCE010E94FD02F3
:10071000E9CFDF91CF9108950F931F93CF93DF938C
:10072000209145012F5F322F37703093450120FF14
:100730002BC020E831FD2064347009F02062205F76
:10074000FC01EC01239600E011E06485662329F0AA
:1007500070E0C8010E94D80C6F5F6187322F369F0E
:10076000030E30E0311D1124311110C016826623B2
:1007700011F0615061873196EC17FD0731F7DF9179
:10078000CF911F910F91089520E0D4CF315036833F
:10079000EECF4F925F927F928F929F92AF92BF92D5
:1007A000CF92DF92EF92FF920F931F93CF93DF933D
:1007B0002C01EB010E94FE00F20127853089621BAB
:1007C000730B6A307105B0F3F8948A819B81181617
:1007D00019060CF0CDC1E881F98165B1862E6894C7
:1007E00083F835B1377F35B9DA848F812D2D281BF9
:1007F000822F2F834F85042E000C550BAA81BB81BD
:100800007D85FC84EE847F5FF394E3949E819884DD
:10081000B984AB841181C12C6C2D0C2D2C2D218120
:10082000112788942111280F08F42FEF81958894BF
:1008300070FD120F1795889471FD120F179588940B
:1008400072FD120F1795889473FD120F17958894F7
:1008500074FD120F1795889475FD120F17958894E3
:1008600076FD120F1795889477FD120F17958894CF
:10087000622F7111612F8D0D162F002C85B800C0CD
:1008800017FF35B920816627889400C000C0002C6E
:1008900035B92111290F00C0002C85B800C016FF02
:1008A00035B908F42FEF9195889400C000C0002C52
:1008B00035B9F0FC620F00C0002C85B800C015FFF0
:1008C00035B967958894F1FC620F00C000C0002C18
:1008D00035B96795889400C0002C85B800C014FF16
:1008E00035B9F2FC620F6795889400C000C0002CF7
:1008F00035B9F3FC620F00C0002C85B800C013FFAF
:1009000035B967958894F4FC620F00C000C0002CD4
:1009100035B96795889400C0002C85B800C012FFD7
:1009200035B9F5FC620F6795889400C000C0002CB3
:1009300035B9F6FC620F00C0002C85B800C011FF6D
:1009400035B967958894F7FC620F00C000C0002C91
:1009500035B96795889400C0002C85B800C010FF99
:1009600035B9122FF110162F9B0D00C000C0002CBE
:1009700035B900C000C0002C85B800C017FF35B9DC
:1009800022816627889400C000C0002C35B921114F
:10099000290D00C0002C85B800C016FF35B908F439
:1009A0002FEFE40FF51F00C000C0002C35B9E0FCAC
:1009B000620F00C0002C85B800C015FF35B96795DF
:1009C0008894E1FC620F00C000C0002C35B9679527
:1009D000889400C0002C85B800C014FF35B9E2FC33
:1009E000620F6795889400C000C0002C35B9E3FC05
:1009F000620F00C0002C85B800C013FF35B96795A1
:100A00008894E4FC620F00C000C0002C35B96795E3
:100A1000889400C0002C85B800C012FF35B9E5FCF1
:100A2000620F6795889400C000C0002C35B9E6FCC1
:100A3000620F00C0002C85B800C011FF35B9679562
:100A40008894E7FC620F00C000C0002C35B96795A0
:100A5000889400C0002C85B800C010FF35B9122F53
:100A6000E110162F919400C000C0002C35B99A0CEB
:100A700000C000C085B800C017FF35B921816627C6
:100A8000889400C000C0002C35B92111280F00C087
:100A9000002C85B800C016FF35B908F42FEF8195FA
:100AA000889400C000C0002C35B970FD620F00C0F2
:100AB000002C85B800C015FF35B96795889471FD85
:100AC000620F00C000C0002C35B96795889400C043
:100AD000002C85B800C014FF35B972FD620F679510
:100AE000889400C000C0002C35B973FD620F00C0AF
:100AF000002C85B800C013FF35B96795889474FD44
:100B0000620F00C000C0002C35B96795889400C002
:100B1000002C85B800C012FF35B975FD620F6795CE
:100B2000889400C000C0002C35B976FD620F00C06B
:100B3000002C85B800C011FF35B96795889477FD02
:100B4000620F00C000C0002C35B96795889400C0C2
:100B5000002C85B800C010FF35B9122F7111162F67
:100B60008D0D00C000C0002C35B9119709F086CE5C
:100B70004A815B8120EE31E0DA010E94EC0CDC015D
:100B8000CB01F4E0B695A79597958795FA95D1F79F
:100B900030E020E0B901EAE94E9F040E611D5E9F3E
:100BA000600D711D1124650F711D860F971FA11D0A
:100BB000B11D893E43E09407A105B10508F434C096
:100BC000885E9340A109B10942E0B695A795979533
:100BD00087954A95D1F747E0849F080E211D949F81
:100BE000200D311D1124290F311D6091440170E049
:100BF000860F971F820F931F4091680550916905DA
:100C000060916A0570916B05292F3327420F531F9E
:100C1000611D711D409368055093690560936A05D5
:100C200070936B058093440178940E94FE00F2015A
:100C3000708B6787DF91CF911F910F91FF90EF909D
:100C4000DF90CF90BF90AF909F908F907F905F90FC
:100C50004F90089581E090E00895239A08956F924F
:100C60007F928F92CF92DF92EF92FF920F931F931A
:100C7000CF93DF93CDB7DEB762970FB6F894DEBFA0
:100C80000FBECDBF6C017A013801822EDC011C96AB
:100C90002C91CA0157FF04C088279927841B950B04
:100CA0007A8369839C838B839E838D836D867E8606
:100CB0008F86213049F5CE0101960E948C0383E096
:100CC000888B1A8A198AF7FE02C08DEF888BD601AD
:100CD000ED91FC910684F785E02DBE016F5F7F4F9B
:100CE000C601099562960FB6F894DEBF0FBECDBF60
:100CF000DF91CF911F910F91FF90EF90DF90CF90F8
:100D00008F907F906F9008951C861B861A86198697
:100D100018861F82D4CFEF92FF920F931F93CF9329
:100D2000DF93CDB7DEB762970FB6F894DEBF0FBE84
:100D3000CDBF7C01DC011C968C917A8369835C8336
:100D40004B835E834D830D871E872F878130F9F497
:100D5000CE0101960E948C03188A1A8A198AD7013B
:100D6000ED91FC910684F785E02DBE016F5F7F4F0A
:100D7000C701099562960FB6F894DEBF0FBECDBFCE
:100D8000DF91CF911F910F91FF90EF9008951C86F6
:100D90001B861A86198618861F82DECF90E080E0B7
:100DA0000895FC018585968508950F931F93CF9331
:100DB000DF9300D01F92CDB7DEB7AB0119821A8244
:100DC0001B82DC01ED91FC910190F081E02D00E0AF
:100DD00010E020E0BE016F5F7F4F09950F900F90EC
:100DE0000F90DF91CF911F910F910895CF92DF92D5
:100DF000EF92FF920F931F93CF93DF9383E090E0E6
:100E000090930301809302010E94F70B20E031E0F0
:100E100040E050E00E94650C7093620160936101B4
:100E2000C12CD12C7601D3942091610130916201C3
:100E3000C90182569109039778F1C3E6D1E0FE011A
:100E400052E0E336F50799F5A3E6B2E043E09CEF04
:100E50008BE655E0A336B50769F5E0900201F09006
:100E60000301AFE8B3E090E080E004E610E068EE54
:100E70005CEF43E08E159F0534F5F801E81BF90B94
:100E8000E993F9936C9311965C93119712964C9396
:100E9000129701961397EECF0E94F70BA7019601C8
:100EA0000E94650C7093620160936101BDCF119245
:100EB0001192C6CF4C9311969C93119712968C93D6
:100EC00012971396C6CFF901EE0FFF1FE20FF31F23
:100ED000ED59FD4F8CEF808383E0818381E4828331
:100EE000DF91CF911F910F91FF90EF90DF90CF9006
:100EF0000C942301E3E6F2E035E0E336F30729F052
:100F00001082118212823396F7CF3CEF30932C037C
:100F100023E020932D0391E490932E0330932F032D
:100F2000209330039093310330935C0320935D034F
:100F300090935E0330935F0320936003909361036B
:100F4000309347032093480390934903309344031D
:100F500020934503909346033093740320937503C5
:100F600090937603309377032093780390937903DB
:100F70003093B9032093BA039093BB033093E903F2
:100F80002093EA039093EB033093190420931A04FF
:100F900090931B043093DA032093DB039093DC03DC
:100FA00030930A0420930B0490930C0430933A047A
:100FB00020933B0490933C048823B9F0ECE1F4E0E7
:100FC0002CEF93E081E4208391838283339634E095
:100FD000EA33F307C1F70E94230168EB7BE080E06E
:100FE00090E00E944A020C94F606ECEBF3E02CEF42
:100FF00093E081E4208391838283339633E0EA3D5A
:10100000F307C1F7E8CF0E940D0D1F920F920FB6A4
:101010000F9211242F933F938F939F93AF93BF937E
:101020008091680590916905A0916A05B0916B0562
:101030003091630523E0230F2D3758F50196A11D4C
:10104000B11D209363058093680590936905A09373
:101050006A05B0936B058091640590916505A09138
:101060006605B09167050196A11DB11D80936405C9
:1010700090936505A0936605B0936705BF91AF9106
:101080009F918F913F912F910F900FBE0F901F90C6
:10109000189526E8230F0296A11DB11DD2CF1F92ED
:1010A0000F920FB60F9211242F933F934F935F939C
:1010B0006F937F938F939F93AF93BF93EF93FF9320
:1010C00088E795E00E94FD02FF91EF91BF91AF91FB
:1010D0009F918F917F916F915F914F913F912F9150
:1010E0000F900FBE0F901F9018951F920F920FB682
:1010F0000F9211242F938F939F93EF93FF93E0917F
:101100008805F09189058081E0918E05F0918F0529
:1011100082FD1BC09081809191058F5F8F7320911C
:101120009205821741F0E0919105F0E0E858FA4FFE
:10113000958F80939105FF91EF919F918F912F91C2
:101140000F900FBE0F901F9018958081F4CFE8E7A5
:10115000F5E01382128288EE93E0A0E0B0E0848391
:101160009583A683B78382E391E09183808385ECA6
:1011700090E09587848784EC90E09787868780EC61
:1011800090E0918B808B81EC90E0938B828B82EC52
:1011900090E0958B848B86EC90E0978B868B118EFC
:1011A000128E138E148EE5E1F6E08FEF80831282AB
:1011B0001182148613868FEF9FEFDC01878390875F
:1011C000A187B2870895CF93DF93CDB7DEB7A197FC
:1011D0000FB6F894DEBF0FBECDBF789484B58260A1
:1011E00084BD84B5816084BD85B5826085BD85B5CB
:1011F000816085BD80916E00816080936E00109249
:1012000081008091810082608093810080918100C3
:101210008160809381008091800081608093800054
:101220008091B10084608093B1008091B0008160B2
:101230008093B00080917A00846080937A008091DE
:101240007A00826080937A0080917A008160809336
:101250007A0080917A00806880937A001092C100B1
:10126000E0918805F091890582E08083E091840512
:10127000F09185051082E0918605F09187058FEC4D
:10128000808310929005E0918C05F0918D0586E0A9
:101290008083E0918A05F0918B0580818061808355
:1012A000E0918A05F0918B05808188608083E091D0
:1012B0008A05F0918B05808180688083E0918A05A2
:1012C000F0918B0580818F7D80838E010F5F1F4F92
:1012D0006801F12CE12CC7010E944F0CF6018193AB
:1012E0006F01FFEFEF1AFF0A24E0E216F10499F70D
:1012F00089819A81AB81BC8187559C4FAF4FBF4F8D
:101300000097D1F389839A83AB83BC83BC01CD0161
:1013100088279927611571058105910511F00E94B3
:10132000460CF12CE12CF80161918F01C7010E945C
:10133000570CFFEFEF1AFF0A24E0E216F10499F7C9
:1013400080915901811145C010924B0110924A01C0
:101350008FEF80934E0180934F01809350018093D3
:101360005101809352018093530181E08093540195
:10137000109256011092550110924D0110924C019D
:101380008091720590917305892B31F488E491E086
:101390009093730580937205E0914601F0914701A7
:1013A000309721F088E491E09583848388E491E08C
:1013B0009093470180934601109258011092570173
:1013C0008EE191E0909349018093480181E0809300
:1013D0005901239A83E692E090934B0180934A014E
:1013E00080E091E09093560180935501809118061A
:1013F00090911906A0911A06B0911B06843C39E021
:101400009307A105B10520F484EC99E0A0E0B0E0D9
:101410008093180690931906A0931A06B0931B06A2
:1014200085E00E948C0084E00E948C0082E00E9493
:101430008C0083E00E948C000E94F606BAE04B2EDE
:10144000512C612C712CC12CD12C7601D39403E04A
:10145000202E312C08EE1CEF85E00E94B400892B71
:1014600009F079C085E090E090930101809300013C
:101470008090000190900101092C000CAA08BB0883
:10148000B7FE8CC06DE288E795E00E941F0322271B
:101490003327A901281939094A095B0919A2CE0184
:1014A00081965C01CA01B901A30192010E94970CC7
:1014B000605DF50162935F0121153105410551051C
:1014C00089F7A114B10461F001900020E9F7319788
:1014D000AF014A195B09B50188E795E00E947F02D8
:1014E00042E050E060E471E088E795E00E947F020E
:1014F000009363021093640283E0809365020E946C
:10150000230140910001509101014F3F540709F41C
:10151000F8C080916301909164014530510509F054
:1015200053C040972091020130910301B901F901A4
:10153000EE0FFF1FED59FE4F6150710932971616DD
:1015400017060CF051C0DF0112970D90BC91A02D31
:10155000B183A083F1CF83E00E94B400892B29F4EA
:10156000309201012092000183CF84E00E94B400F8
:10157000892B39F4E4E0F0E0F0930101E0930001FD
:1015800077CF82E00E94B400892B09F071CF22E06E
:1015900030E030930101209300016ACFA50194014E
:1015A00019A2CE0181965C01CA01B901A301920181
:1015B0000E94970C605DF50162935F012115310572
:1015C0004105510589F77DCF4230510511F4409610
:1015D000A9CF4330510511F40197A4CF44305105F0
:1015E00009F0A0CF01969ECF909364018093630190
:1015F0008F3F910509F048F44430510551F4AC0196
:101600004F7055274F30510539F480E00E947A071A
:1016100078C04330510579F0E5E6F1E041E050E073
:1016200042175307CCF5619171918617970769F3BB
:101630004F5F5F4FF5CFAC014F705527452B61F7DA
:10164000E4CF808311833BE6328333965DC0809183
:10165000610190916201FC01EE0FFF1FE80FF91F7D
:10166000ED59FD4F108383E0818381E482830E94E2
:10167000230164EF71E080E090E00E944A0280E084
:1016800090E0892B09F4E8CE0E94E902882309F44E
:10169000E1CE0E940000DECE4091610150916201D6
:1016A0008417950771F52F5F3F4F30930301209307
:1016B00002012436310519F481E00E947A070E9464
:1016C000F70BA70196010E94650C7093620160936D
:1016D00061018091610190916201E0910201F091BC
:1016E0000301EE0FFF1FE15AFE4F20813181821767
:1016F00093073CF02091630130916401281739076A
:10170000F4F6E3E6F2E083E023E635E02E173F0748
:1017100009F097CF6091020170910301E3E6F1E0D7
:1017200030E020E0B3E0BB2E261737070CF08FCF58
:1017300081919191AC01440F551F840F951FDC01DD
:10174000AD59BD4F0C9311961C9311971296BC92F4
:101750002F5F3F4FE9CF8F929F92AF92BF92CF9270
:10176000DF92EF92FF92CF93DF93EC016881798152
:101770008A819B81611571058105910521F464E2DF
:1017800079ED8BE597E02DE133EF41E050E00E94E9
:10179000650C49015A019B01AC01A7EAB1E40E9422
:1017A000840C6B017C01ACEEB4EFA50194010E94A6
:1017B000920CC60ED71EE81EF91EF7FE06C081E089
:1017C000C81AD108E10880E8F80AC882D982EA82FA
:1017D000FB82C701B6019F77DF91CF91FF90EF9019
:1017E000DF90CF90BF90AF909F908F9008958F9291
:1017F0009F92AF92BF92CF92DF92EF92FF92609151
:101800000401709105018091060190910701611515
:1018100071058105910521F464E279ED8BE597E08E
:101820002DE133EF41E050E00E94650C49015A017F
:101830009B01AC01A7EAB1E40E94840C6B017C011E
:10184000ACEEB4EFA50194010E94920CC60ED71E17
:10185000E81EF91EF7FE06C081E0C81AD108E108AB
:1018600080E8F80AC0920401D0920501E0920601D6
:10187000F0920701C701B6019F77FF90EF90DF90CC
:10188000CF90BF90AF909F908F9008956093040188
:101890007093050180930601909307010895F999CB
:1018A000FECF92BD81BDF89A992780B50895262F65
:1018B000F999FECF1FBA92BD81BD20BD0FB6F89435
:1018C000FA9AF99A0FBE01960895052E97FB1EF419
:1018D00000940E947C0C57FD07D00E94970C07FCD7
:1018E00003D04EF40C947C0C509540953095219586
:1018F0003F4F4F4F5F4F089590958095709561953C
:101900007F4F8F4F9F4F08950E94B90CA59F900D58
:10191000B49F900DA49F800D911D11240895B7FFD1
:101920000C94840C0E94840C821B930B0895A1E2FA
:101930001A2EAA1BBB1BFD010DC0AA1FBB1FEE1F49
:10194000FF1FA217B307E407F50720F0A21BB30B94
:10195000E40BF50B661F771F881F991F1A9469F710
:1019600060957095809590959B01AC01BD01CF016C
:101970000895A29FB001B39FC001A39F700D811D68
:101980001124911DB29F700D811D1124911D089588
:10199000DB018F939F930E94840CBF91AF91A29F14
:1019A000800D911DA39F900DB29F900D112408955D
:1019B00097FB072E16F4009407D077FD09D00E94FC
:1019C000F30C07FC05D03EF4909581959F4F089548
:1019D000709561957F4F08950E94B90CB7FF0895E7
:1019E000821B930B0895AA1BBB1B51E107C0AA1FC2
:1019F000BB1FA617B70710F0A61BB70B881F991FB0
:101A00005A95A9F780959095BC01CD010895EE0FE8
:101A1000FF1F0590F491E02D099481E090E0F89487
:101A20000C94120DF894FFCFFFFF0300010000009B
:101A300000000000030803080308D506D1062A06A3
:101A4000CE06000000008B062F062D06D506D10617
:101A50002A067C02C903000000001F037F02AC02BB
:0C1A60006C03DD02BB02CF020D0A000087
:107E0000112484B714BE81FFF0D085E080938100F7
:107E100082E08093C00088E18093C10086E0809377
:107E2000C20080E18093C4008EE0C9D0259A86E02C
:107E300020E33CEF91E0309385002093840096BBD3
:107E4000B09BFECF1D9AA8958150A9F7CC24DD24C4
:107E500088248394B5E0AB2EA1E19A2EF3E0BF2EE7
:107E6000A2D0813461F49FD0082FAFD0023811F036
:107E7000013811F484E001C083E08DD089C08234E0
:107E800011F484E103C0853419F485E0A6D080C0E4
:107E9000853579F488D0E82EFF2485D0082F10E0AE
:107EA000102F00270E291F29000F111F8ED06801E7
:107EB0006FC0863521F484E090D080E0DECF843638
:107EC00009F040C070D06FD0082F6DD080E0C81688
:107ED00080E7D80618F4F601B7BEE895C0E0D1E017
:107EE00062D089930C17E1F7F0E0CF16F0E7DF06D8
:107EF00018F0F601B7BEE89568D007B600FCFDCFD4
:107F0000A601A0E0B1E02C9130E011968C91119780
:107F100090E0982F8827822B932B1296FA010C0160
:107F200087BEE89511244E5F5F4FF1E0A038BF0790
:107F300051F7F601A7BEE89507B600FCFDCF97BE46
:107F4000E89526C08437B1F42ED02DD0F82E2BD052
:107F50003CD0F601EF2C8F010F5F1F4F84911BD097
:107F6000EA94F801C1F70894C11CD11CFA94CF0C13
:107F7000D11C0EC0853739F428D08EE10CD085E9AC
:107F80000AD08FE07ACF813511F488E018D01DD067
:107F900080E101D065CF982F8091C00085FFFCCF94
:107FA0009093C60008958091C00087FFFCCF809118
:107FB000C00084FD01C0A8958091C6000895E0E648
:107FC000F0E098E1908380830895EDDF803219F02E
:107FD00088E0F5DFFFCF84E1DECF1F93182FE3DFCA
:107FE0001150E9F7F2DF1F91089580E0E8DFEE27F6
:047FF000FF270994CA
:027FFE00040479
:00000001FF
